{
  "_format": "hh-sol-artifact-1",
  "contractName": "DynamicSvgNft",
  "sourceName": "contracts/DynamicSvgNft.sol",
  "abi": [
    {
      "inputs": [
        {
          "internalType": "address",
          "name": "priceFeedAddress",
          "type": "address"
        },
        {
          "internalType": "string",
          "name": "sad_svg",
          "type": "string"
        },
        {
          "internalType": "string",
          "name": "happy_svg",
          "type": "string"
        }
      ],
      "stateMutability": "nonpayable",
      "type": "constructor"
    },
    {
      "anonymous": false,
      "inputs": [
        {
          "indexed": true,
          "internalType": "address",
          "name": "owner",
          "type": "address"
        },
        {
          "indexed": true,
          "internalType": "address",
          "name": "approved",
          "type": "address"
        },
        {
          "indexed": true,
          "internalType": "uint256",
          "name": "tokenId",
          "type": "uint256"
        }
      ],
      "name": "Approval",
      "type": "event"
    },
    {
      "anonymous": false,
      "inputs": [
        {
          "indexed": true,
          "internalType": "address",
          "name": "owner",
          "type": "address"
        },
        {
          "indexed": true,
          "internalType": "address",
          "name": "operator",
          "type": "address"
        },
        {
          "indexed": false,
          "internalType": "bool",
          "name": "approved",
          "type": "bool"
        }
      ],
      "name": "ApprovalForAll",
      "type": "event"
    },
    {
      "anonymous": false,
      "inputs": [
        {
          "indexed": true,
          "internalType": "uint256",
          "name": "tokenId",
          "type": "uint256"
        },
        {
          "indexed": false,
          "internalType": "int256",
          "name": "highValue",
          "type": "int256"
        }
      ],
      "name": "CreateNFT",
      "type": "event"
    },
    {
      "anonymous": false,
      "inputs": [
        {
          "indexed": true,
          "internalType": "address",
          "name": "previousOwner",
          "type": "address"
        },
        {
          "indexed": true,
          "internalType": "address",
          "name": "newOwner",
          "type": "address"
        }
      ],
      "name": "OwnershipTransferred",
      "type": "event"
    },
    {
      "anonymous": false,
      "inputs": [
        {
          "indexed": true,
          "internalType": "address",
          "name": "from",
          "type": "address"
        },
        {
          "indexed": true,
          "internalType": "address",
          "name": "to",
          "type": "address"
        },
        {
          "indexed": true,
          "internalType": "uint256",
          "name": "tokenId",
          "type": "uint256"
        }
      ],
      "name": "Transfer",
      "type": "event"
    },
    {
      "inputs": [
        {
          "internalType": "address",
          "name": "to",
          "type": "address"
        },
        {
          "internalType": "uint256",
          "name": "tokenId",
          "type": "uint256"
        }
      ],
      "name": "approve",
      "outputs": [],
      "stateMutability": "nonpayable",
      "type": "function"
    },
    {
      "inputs": [
        {
          "internalType": "address",
          "name": "owner",
          "type": "address"
        }
      ],
      "name": "balanceOf",
      "outputs": [
        {
          "internalType": "uint256",
          "name": "",
          "type": "uint256"
        }
      ],
      "stateMutability": "view",
      "type": "function"
    },
    {
      "inputs": [
        {
          "internalType": "uint256",
          "name": "tokenId",
          "type": "uint256"
        }
      ],
      "name": "getApproved",
      "outputs": [
        {
          "internalType": "address",
          "name": "",
          "type": "address"
        }
      ],
      "stateMutability": "view",
      "type": "function"
    },
    {
      "inputs": [
        {
          "internalType": "address",
          "name": "owner",
          "type": "address"
        },
        {
          "internalType": "address",
          "name": "operator",
          "type": "address"
        }
      ],
      "name": "isApprovedForAll",
      "outputs": [
        {
          "internalType": "bool",
          "name": "",
          "type": "bool"
        }
      ],
      "stateMutability": "view",
      "type": "function"
    },
    {
      "inputs": [
        {
          "internalType": "int256",
          "name": "highValue",
          "type": "int256"
        }
      ],
      "name": "mintNft",
      "outputs": [],
      "stateMutability": "nonpayable",
      "type": "function"
    },
    {
      "inputs": [],
      "name": "name",
      "outputs": [
        {
          "internalType": "string",
          "name": "",
          "type": "string"
        }
      ],
      "stateMutability": "view",
      "type": "function"
    },
    {
      "inputs": [],
      "name": "owner",
      "outputs": [
        {
          "internalType": "address",
          "name": "",
          "type": "address"
        }
      ],
      "stateMutability": "view",
      "type": "function"
    },
    {
      "inputs": [
        {
          "internalType": "uint256",
          "name": "tokenId",
          "type": "uint256"
        }
      ],
      "name": "ownerOf",
      "outputs": [
        {
          "internalType": "address",
          "name": "",
          "type": "address"
        }
      ],
      "stateMutability": "view",
      "type": "function"
    },
    {
      "inputs": [],
      "name": "renounceOwnership",
      "outputs": [],
      "stateMutability": "nonpayable",
      "type": "function"
    },
    {
      "inputs": [
        {
          "internalType": "uint256",
          "name": "",
          "type": "uint256"
        }
      ],
      "name": "s_tokenidToHighValue",
      "outputs": [
        {
          "internalType": "int256",
          "name": "",
          "type": "int256"
        }
      ],
      "stateMutability": "view",
      "type": "function"
    },
    {
      "inputs": [
        {
          "internalType": "address",
          "name": "from",
          "type": "address"
        },
        {
          "internalType": "address",
          "name": "to",
          "type": "address"
        },
        {
          "internalType": "uint256",
          "name": "tokenId",
          "type": "uint256"
        }
      ],
      "name": "safeTransferFrom",
      "outputs": [],
      "stateMutability": "nonpayable",
      "type": "function"
    },
    {
      "inputs": [
        {
          "internalType": "address",
          "name": "from",
          "type": "address"
        },
        {
          "internalType": "address",
          "name": "to",
          "type": "address"
        },
        {
          "internalType": "uint256",
          "name": "tokenId",
          "type": "uint256"
        },
        {
          "internalType": "bytes",
          "name": "data",
          "type": "bytes"
        }
      ],
      "name": "safeTransferFrom",
      "outputs": [],
      "stateMutability": "nonpayable",
      "type": "function"
    },
    {
      "inputs": [
        {
          "internalType": "address",
          "name": "operator",
          "type": "address"
        },
        {
          "internalType": "bool",
          "name": "approved",
          "type": "bool"
        }
      ],
      "name": "setApprovalForAll",
      "outputs": [],
      "stateMutability": "nonpayable",
      "type": "function"
    },
    {
      "inputs": [
        {
          "internalType": "bytes4",
          "name": "interfaceId",
          "type": "bytes4"
        }
      ],
      "name": "supportsInterface",
      "outputs": [
        {
          "internalType": "bool",
          "name": "",
          "type": "bool"
        }
      ],
      "stateMutability": "view",
      "type": "function"
    },
    {
      "inputs": [
        {
          "internalType": "string",
          "name": "svg",
          "type": "string"
        }
      ],
      "name": "svgToImgUri",
      "outputs": [
        {
          "internalType": "string",
          "name": "",
          "type": "string"
        }
      ],
      "stateMutability": "pure",
      "type": "function"
    },
    {
      "inputs": [],
      "name": "symbol",
      "outputs": [
        {
          "internalType": "string",
          "name": "",
          "type": "string"
        }
      ],
      "stateMutability": "view",
      "type": "function"
    },
    {
      "inputs": [
        {
          "internalType": "uint256",
          "name": "tokenId",
          "type": "uint256"
        }
      ],
      "name": "tokenURI",
      "outputs": [
        {
          "internalType": "string",
          "name": "",
          "type": "string"
        }
      ],
      "stateMutability": "view",
      "type": "function"
    },
    {
      "inputs": [
        {
          "internalType": "address",
          "name": "from",
          "type": "address"
        },
        {
          "internalType": "address",
          "name": "to",
          "type": "address"
        },
        {
          "internalType": "uint256",
          "name": "tokenId",
          "type": "uint256"
        }
      ],
      "name": "transferFrom",
      "outputs": [],
      "stateMutability": "nonpayable",
      "type": "function"
    },
    {
      "inputs": [
        {
          "internalType": "address",
          "name": "newOwner",
          "type": "address"
        }
      ],
      "name": "transferOwnership",
      "outputs": [],
      "stateMutability": "nonpayable",
      "type": "function"
    }
  ],
  "bytecode": "0x60a06040523480156200001157600080fd5b5060405162003d5a38038062003d5a83398181016040528101906200003791906200073a565b6040518060400160405280600f81526020017f44796e616d696320535647204e667400000000000000000000000000000000008152506040518060400160405280600381526020017f44534e00000000000000000000000000000000000000000000000000000000008152508160009080519060200190620000bb92919062000488565b508060019080519060200190620000d492919062000488565b505050620000f7620000eb6200018e60201b60201c565b6200019660201b60201c565b600060078190555062000110826200025c60201b60201c565b600890805190602001906200012792919062000488565b5062000139816200025c60201b60201c565b600990805190602001906200015092919062000488565b508273ffffffffffffffffffffffffffffffffffffffff1660808173ffffffffffffffffffffffffffffffffffffffff168152505050505062000a25565b600033905090565b6000600660009054906101000a900473ffffffffffffffffffffffffffffffffffffffff16905081600660006101000a81548173ffffffffffffffffffffffffffffffffffffffff021916908373ffffffffffffffffffffffffffffffffffffffff1602179055508173ffffffffffffffffffffffffffffffffffffffff168173ffffffffffffffffffffffffffffffffffffffff167f8be0079c531659141344cd1fd0a4f28419497f9722a3daafe3b4186f6b6457e060405160405180910390a35050565b60606000620002978360405160200162000277919062000821565b604051602081830303815290604052620002fa60201b62000e561760201c565b90506040518060400160405280601a81526020017f646174613a696d6167652f7376672b786d6c3b6261736536342c00000000000081525081604051602001620002e39291906200083a565b604051602081830303815290604052915050919050565b60606000825114156200031f5760405180602001604052806000815250905062000483565b600060405180606001604052806040815260200162003d1a60409139905060006003600285516200035191906200089b565b6200035d919062000927565b60046200036b91906200095f565b905060006020826200037e91906200089b565b67ffffffffffffffff8111156200039a5762000399620005cc565b5b6040519080825280601f01601f191660200182016040528015620003cd5781602001600182028036833780820191505090505b509050818152600183018586518101602084015b818310156200043e576003830192508251603f8160121c168501518253600182019150603f81600c1c168501518253600182019150603f8160061c168501518253600182019150603f8116850151825360018201915050620003e1565b6003895106600181146200045b57600281146200046c5762000477565b613d3d60f01b600283035262000477565b603d60f81b60018303525b50505050508093505050505b919050565b8280546200049690620009ef565b90600052602060002090601f016020900481019282620004ba576000855562000506565b82601f10620004d557805160ff191683800117855562000506565b8280016001018555821562000506579182015b8281111562000505578251825591602001919060010190620004e8565b5b50905062000515919062000519565b5090565b5b80821115620005345760008160009055506001016200051a565b5090565b6000604051905090565b600080fd5b600080fd5b600073ffffffffffffffffffffffffffffffffffffffff82169050919050565b600062000579826200054c565b9050919050565b6200058b816200056c565b81146200059757600080fd5b50565b600081519050620005ab8162000580565b92915050565b600080fd5b600080fd5b6000601f19601f8301169050919050565b7f4e487b7100000000000000000000000000000000000000000000000000000000600052604160045260246000fd5b6200060682620005bb565b810181811067ffffffffffffffff82111715620006285762000627620005cc565b5b80604052505050565b60006200063d62000538565b90506200064b8282620005fb565b919050565b600067ffffffffffffffff8211156200066e576200066d620005cc565b5b6200067982620005bb565b9050602081019050919050565b60005b83811015620006a657808201518184015260208101905062000689565b83811115620006b6576000848401525b50505050565b6000620006d3620006cd8462000650565b62000631565b905082815260208101848484011115620006f257620006f1620005b6565b5b620006ff84828562000686565b509392505050565b600082601f8301126200071f576200071e620005b1565b5b815162000731848260208601620006bc565b91505092915050565b60008060006060848603121562000756576200075562000542565b5b600062000766868287016200059a565b935050602084015167ffffffffffffffff8111156200078a576200078962000547565b5b620007988682870162000707565b925050604084015167ffffffffffffffff811115620007bc57620007bb62000547565b5b620007ca8682870162000707565b9150509250925092565b600081519050919050565b600081905092915050565b6000620007f782620007d4565b620008038185620007df565b93506200081581856020860162000686565b80840191505092915050565b60006200082f8284620007ea565b915081905092915050565b6000620008488285620007ea565b9150620008568284620007ea565b91508190509392505050565b6000819050919050565b7f4e487b7100000000000000000000000000000000000000000000000000000000600052601160045260246000fd5b6000620008a88262000862565b9150620008b58362000862565b9250827fffffffffffffffffffffffffffffffffffffffffffffffffffffffffffffffff03821115620008ed57620008ec6200086c565b5b828201905092915050565b7f4e487b7100000000000000000000000000000000000000000000000000000000600052601260045260246000fd5b6000620009348262000862565b9150620009418362000862565b925082620009545762000953620008f8565b5b828204905092915050565b60006200096c8262000862565b9150620009798362000862565b9250817fffffffffffffffffffffffffffffffffffffffffffffffffffffffffffffffff0483118215151615620009b557620009b46200086c565b5b828202905092915050565b7f4e487b7100000000000000000000000000000000000000000000000000000000600052602260045260246000fd5b6000600282049050600182168062000a0857607f821691505b6020821081141562000a1f5762000a1e620009c0565b5b50919050565b6080516132d962000a416000396000610afa01526132d96000f3fe608060405234801561001057600080fd5b50600436106101215760003560e01c806370a08231116100ad578063b88d4fde11610071578063b88d4fde14610306578063c87b56dd14610322578063e69f92d714610352578063e985e9c514610382578063f2fde38b146103b257610121565b806370a0823114610274578063715018a6146102a45780638da5cb5b146102ae57806395d89b41146102cc578063a22cb465146102ea57610121565b80631e930812116100f45780631e930812146101c057806323b872dd146101dc57806328e83cc8146101f857806342842e0e146102285780636352211e1461024457610121565b806301ffc9a71461012657806306fdde0314610156578063081812fc14610174578063095ea7b3146101a4575b600080fd5b610140600480360381019061013b9190611e76565b6103ce565b60405161014d9190611ebe565b60405180910390f35b61015e6104b0565b60405161016b9190611f72565b60405180910390f35b61018e60048036038101906101899190611fca565b610542565b60405161019b9190612038565b60405180910390f35b6101be60048036038101906101b9919061207f565b610588565b005b6101da60048036038101906101d591906120f5565b6106a0565b005b6101f660048036038101906101f19190612122565b610718565b005b610212600480360381019061020d91906122aa565b610778565b60405161021f9190611f72565b60405180910390f35b610242600480360381019061023d9190612122565b610805565b005b61025e60048036038101906102599190611fca565b610825565b60405161026b9190612038565b60405180910390f35b61028e600480360381019061028991906122f3565b6108ac565b60405161029b919061232f565b60405180910390f35b6102ac610964565b005b6102b6610978565b6040516102c39190612038565b60405180910390f35b6102d46109a2565b6040516102e19190611f72565b60405180910390f35b61030460048036038101906102ff9190612376565b610a34565b005b610320600480360381019061031b9190612457565b610a4a565b005b61033c60048036038101906103379190611fca565b610aac565b6040516103499190611f72565b60405180910390f35b61036c60048036038101906103679190611fca565b610d26565b60405161037991906124e9565b60405180910390f35b61039c60048036038101906103979190612504565b610d3e565b6040516103a99190611ebe565b60405180910390f35b6103cc60048036038101906103c791906122f3565b610dd2565b005b60007f80ac58cd000000000000000000000000000000000000000000000000000000007bffffffffffffffffffffffffffffffffffffffffffffffffffffffff1916827bffffffffffffffffffffffffffffffffffffffffffffffffffffffff1916148061049957507f5b5e139f000000000000000000000000000000000000000000000000000000007bffffffffffffffffffffffffffffffffffffffffffffffffffffffff1916827bffffffffffffffffffffffffffffffffffffffffffffffffffffffff1916145b806104a957506104a882610fcf565b5b9050919050565b6060600080546104bf90612573565b80601f01602080910402602001604051908101604052809291908181526020018280546104eb90612573565b80156105385780601f1061050d57610100808354040283529160200191610538565b820191906000526020600020905b81548152906001019060200180831161051b57829003601f168201915b5050505050905090565b600061054d82611039565b6004600083815260200190815260200160002060009054906101000a900473ffffffffffffffffffffffffffffffffffffffff169050919050565b600061059382610825565b90508073ffffffffffffffffffffffffffffffffffffffff168373ffffffffffffffffffffffffffffffffffffffff161415610604576040517f08c379a00000000000000000000000000000000000000000000000000000000081526004016105fb90612617565b60405180910390fd5b8073ffffffffffffffffffffffffffffffffffffffff16610623611084565b73ffffffffffffffffffffffffffffffffffffffff16148061065257506106518161064c611084565b610d3e565b5b610691576040517f08c379a0000000000000000000000000000000000000000000000000000000008152600401610688906126a9565b60405180910390fd5b61069b838361108c565b505050565b80600a600060075481526020019081526020016000208190555060016007546106c991906126f8565b6007819055506106db33600754611145565b6007547f9e14bc3e97903853717e5de268cf79a0d96e10198463629671e4c60ac29cba0d8260405161070d91906124e9565b60405180910390a250565b610729610723611084565b82611163565b610768576040517f08c379a000000000000000000000000000000000000000000000000000000000815260040161075f906127c0565b60405180910390fd5b6107738383836111f8565b505050565b606060006107a483604051602001610790919061281c565b604051602081830303815290604052610e56565b90506040518060400160405280601a81526020017f646174613a696d6167652f7376672b786d6c3b6261736536342c000000000000815250816040516020016107ee929190612833565b604051602081830303815290604052915050919050565b61082083838360405180602001604052806000815250610a4a565b505050565b600080610831836114f2565b9050600073ffffffffffffffffffffffffffffffffffffffff168173ffffffffffffffffffffffffffffffffffffffff1614156108a3576040517f08c379a000000000000000000000000000000000000000000000000000000000815260040161089a906128a3565b60405180910390fd5b80915050919050565b60008073ffffffffffffffffffffffffffffffffffffffff168273ffffffffffffffffffffffffffffffffffffffff16141561091d576040517f08c379a000000000000000000000000000000000000000000000000000000000815260040161091490612935565b60405180910390fd5b600360008373ffffffffffffffffffffffffffffffffffffffff1673ffffffffffffffffffffffffffffffffffffffff168152602001908152602001600020549050919050565b61096c61152f565b61097660006115ad565b565b6000600660009054906101000a900473ffffffffffffffffffffffffffffffffffffffff16905090565b6060600180546109b190612573565b80601f01602080910402602001604051908101604052809291908181526020018280546109dd90612573565b8015610a2a5780601f106109ff57610100808354040283529160200191610a2a565b820191906000526020600020905b815481529060010190602001808311610a0d57829003601f168201915b5050505050905090565b610a46610a3f611084565b8383611673565b5050565b610a5b610a55611084565b83611163565b610a9a576040517f08c379a0000000000000000000000000000000000000000000000000000000008152600401610a91906127c0565b60405180910390fd5b610aa6848484846117e0565b50505050565b6060610ab78261183c565b610af6576040517f08c379a0000000000000000000000000000000000000000000000000000000008152600401610aed906129a1565b60405180910390fd5b60007f000000000000000000000000000000000000000000000000000000000000000073ffffffffffffffffffffffffffffffffffffffff1663feaf968c6040518163ffffffff1660e01b815260040160a060405180830381865afa158015610b63573d6000803e3d6000fd5b505050506040513d601f19601f82011682018060405250810190610b879190612a2d565b505050915050600060088054610b9c90612573565b80601f0160208091040260200160405190810160405280929190818152602001828054610bc890612573565b8015610c155780601f10610bea57610100808354040283529160200191610c15565b820191906000526020600020905b815481529060010190602001808311610bf857829003601f168201915b50505050509050600a6000858152602001908152602001600020548212610cc45760098054610c4390612573565b80601f0160208091040260200160405190810160405280929190818152602001828054610c6f90612573565b8015610cbc5780601f10610c9157610100808354040283529160200191610cbc565b820191906000526020600020905b815481529060010190602001808311610c9f57829003601f168201915b505050505090505b610ccc61187d565b610cfd610cd76104b0565b83604051602001610ce9929190612c4a565b604051602081830303815290604052610e56565b604051602001610d0e929190612833565b60405160208183030381529060405292505050919050565b600a6020528060005260406000206000915090505481565b6000600560008473ffffffffffffffffffffffffffffffffffffffff1673ffffffffffffffffffffffffffffffffffffffff16815260200190815260200160002060008373ffffffffffffffffffffffffffffffffffffffff1673ffffffffffffffffffffffffffffffffffffffff16815260200190815260200160002060009054906101000a900460ff16905092915050565b610dda61152f565b600073ffffffffffffffffffffffffffffffffffffffff168173ffffffffffffffffffffffffffffffffffffffff161415610e4a576040517f08c379a0000000000000000000000000000000000000000000000000000000008152600401610e4190612d0c565b60405180910390fd5b610e53816115ad565b50565b6060600082511415610e7957604051806020016040528060008152509050610fca565b60006040518060600160405280604081526020016132646040913990506000600360028551610ea891906126f8565b610eb29190612d5b565b6004610ebe9190612d8c565b90506000602082610ecf91906126f8565b67ffffffffffffffff811115610ee857610ee761217f565b5b6040519080825280601f01601f191660200182016040528015610f1a5781602001600182028036833780820191505090505b509050818152600183018586518101602084015b81831015610f89576003830192508251603f8160121c168501518253600182019150603f81600c1c168501518253600182019150603f8160061c168501518253600182019150603f8116850151825360018201915050610f2e565b600389510660018114610fa35760028114610fb357610fbe565b613d3d60f01b6002830352610fbe565b603d60f81b60018303525b50505050508093505050505b919050565b60007f01ffc9a7000000000000000000000000000000000000000000000000000000007bffffffffffffffffffffffffffffffffffffffffffffffffffffffff1916827bffffffffffffffffffffffffffffffffffffffffffffffffffffffff1916149050919050565b6110428161183c565b611081576040517f08c379a0000000000000000000000000000000000000000000000000000000008152600401611078906128a3565b60405180910390fd5b50565b600033905090565b816004600083815260200190815260200160002060006101000a81548173ffffffffffffffffffffffffffffffffffffffff021916908373ffffffffffffffffffffffffffffffffffffffff160217905550808273ffffffffffffffffffffffffffffffffffffffff166110ff83610825565b73ffffffffffffffffffffffffffffffffffffffff167f8c5be1e5ebec7d5bd14f71427d1e84f3dd0314c0f7b2291e5b200ac8c7c3b92560405160405180910390a45050565b61115f8282604051806020016040528060008152506118ba565b5050565b60008061116f83610825565b90508073ffffffffffffffffffffffffffffffffffffffff168473ffffffffffffffffffffffffffffffffffffffff1614806111b157506111b08185610d3e565b5b806111ef57508373ffffffffffffffffffffffffffffffffffffffff166111d784610542565b73ffffffffffffffffffffffffffffffffffffffff16145b91505092915050565b8273ffffffffffffffffffffffffffffffffffffffff1661121882610825565b73ffffffffffffffffffffffffffffffffffffffff161461126e576040517f08c379a000000000000000000000000000000000000000000000000000000000815260040161126590612e58565b60405180910390fd5b600073ffffffffffffffffffffffffffffffffffffffff168273ffffffffffffffffffffffffffffffffffffffff1614156112de576040517f08c379a00000000000000000000000000000000000000000000000000000000081526004016112d590612eea565b60405180910390fd5b6112eb8383836001611915565b8273ffffffffffffffffffffffffffffffffffffffff1661130b82610825565b73ffffffffffffffffffffffffffffffffffffffff1614611361576040517f08c379a000000000000000000000000000000000000000000000000000000000815260040161135890612e58565b60405180910390fd5b6004600082815260200190815260200160002060006101000a81549073ffffffffffffffffffffffffffffffffffffffff02191690556001600360008573ffffffffffffffffffffffffffffffffffffffff1673ffffffffffffffffffffffffffffffffffffffff168152602001908152602001600020600082825403925050819055506001600360008473ffffffffffffffffffffffffffffffffffffffff1673ffffffffffffffffffffffffffffffffffffffff16815260200190815260200160002060008282540192505081905550816002600083815260200190815260200160002060006101000a81548173ffffffffffffffffffffffffffffffffffffffff021916908373ffffffffffffffffffffffffffffffffffffffff160217905550808273ffffffffffffffffffffffffffffffffffffffff168473ffffffffffffffffffffffffffffffffffffffff167fddf252ad1be2c89b69c2b068fc378daa952ba7f163c4a11628f55a4df523b3ef60405160405180910390a46114ed8383836001611a3b565b505050565b60006002600083815260200190815260200160002060009054906101000a900473ffffffffffffffffffffffffffffffffffffffff169050919050565b611537611084565b73ffffffffffffffffffffffffffffffffffffffff16611555610978565b73ffffffffffffffffffffffffffffffffffffffff16146115ab576040517f08c379a00000000000000000000000000000000000000000000000000000000081526004016115a290612f56565b60405180910390fd5b565b6000600660009054906101000a900473ffffffffffffffffffffffffffffffffffffffff16905081600660006101000a81548173ffffffffffffffffffffffffffffffffffffffff021916908373ffffffffffffffffffffffffffffffffffffffff1602179055508173ffffffffffffffffffffffffffffffffffffffff168173ffffffffffffffffffffffffffffffffffffffff167f8be0079c531659141344cd1fd0a4f28419497f9722a3daafe3b4186f6b6457e060405160405180910390a35050565b8173ffffffffffffffffffffffffffffffffffffffff168373ffffffffffffffffffffffffffffffffffffffff1614156116e2576040517f08c379a00000000000000000000000000000000000000000000000000000000081526004016116d990612fc2565b60405180910390fd5b80600560008573ffffffffffffffffffffffffffffffffffffffff1673ffffffffffffffffffffffffffffffffffffffff16815260200190815260200160002060008473ffffffffffffffffffffffffffffffffffffffff1673ffffffffffffffffffffffffffffffffffffffff16815260200190815260200160002060006101000a81548160ff0219169083151502179055508173ffffffffffffffffffffffffffffffffffffffff168373ffffffffffffffffffffffffffffffffffffffff167f17307eab39ab6107e8899845ad3d59bd9653f200f220920489ca2b5937696c31836040516117d39190611ebe565b60405180910390a3505050565b6117eb8484846111f8565b6117f784848484611a41565b611836576040517f08c379a000000000000000000000000000000000000000000000000000000000815260040161182d90613054565b60405180910390fd5b50505050565b60008073ffffffffffffffffffffffffffffffffffffffff1661185e836114f2565b73ffffffffffffffffffffffffffffffffffffffff1614159050919050565b60606040518060400160405280601c81526020017f646174613a6170706c69636174696f6e2f6a736f6e3b62617365363400000000815250905090565b6118c48383611bc9565b6118d16000848484611a41565b611910576040517f08c379a000000000000000000000000000000000000000000000000000000000815260040161190790613054565b60405180910390fd5b505050565b6001811115611a3557600073ffffffffffffffffffffffffffffffffffffffff168473ffffffffffffffffffffffffffffffffffffffff16146119a95780600360008673ffffffffffffffffffffffffffffffffffffffff1673ffffffffffffffffffffffffffffffffffffffff16815260200190815260200160002060008282546119a19190613074565b925050819055505b600073ffffffffffffffffffffffffffffffffffffffff168373ffffffffffffffffffffffffffffffffffffffff1614611a345780600360008573ffffffffffffffffffffffffffffffffffffffff1673ffffffffffffffffffffffffffffffffffffffff1681526020019081526020016000206000828254611a2c91906126f8565b925050819055505b5b50505050565b50505050565b6000611a628473ffffffffffffffffffffffffffffffffffffffff16611de7565b15611bbc578373ffffffffffffffffffffffffffffffffffffffff1663150b7a02611a8b611084565b8786866040518563ffffffff1660e01b8152600401611aad94939291906130fd565b6020604051808303816000875af1925050508015611ae957506040513d601f19601f82011682018060405250810190611ae6919061315e565b60015b611b6c573d8060008114611b19576040519150601f19603f3d011682016040523d82523d6000602084013e611b1e565b606091505b50600081511415611b64576040517f08c379a0000000000000000000000000000000000000000000000000000000008152600401611b5b90613054565b60405180910390fd5b805181602001fd5b63150b7a0260e01b7bffffffffffffffffffffffffffffffffffffffffffffffffffffffff1916817bffffffffffffffffffffffffffffffffffffffffffffffffffffffff191614915050611bc1565b600190505b949350505050565b600073ffffffffffffffffffffffffffffffffffffffff168273ffffffffffffffffffffffffffffffffffffffff161415611c39576040517f08c379a0000000000000000000000000000000000000000000000000000000008152600401611c30906131d7565b60405180910390fd5b611c428161183c565b15611c82576040517f08c379a0000000000000000000000000000000000000000000000000000000008152600401611c7990613243565b60405180910390fd5b611c90600083836001611915565b611c998161183c565b15611cd9576040517f08c379a0000000000000000000000000000000000000000000000000000000008152600401611cd090613243565b60405180910390fd5b6001600360008473ffffffffffffffffffffffffffffffffffffffff1673ffffffffffffffffffffffffffffffffffffffff16815260200190815260200160002060008282540192505081905550816002600083815260200190815260200160002060006101000a81548173ffffffffffffffffffffffffffffffffffffffff021916908373ffffffffffffffffffffffffffffffffffffffff160217905550808273ffffffffffffffffffffffffffffffffffffffff16600073ffffffffffffffffffffffffffffffffffffffff167fddf252ad1be2c89b69c2b068fc378daa952ba7f163c4a11628f55a4df523b3ef60405160405180910390a4611de3600083836001611a3b565b5050565b6000808273ffffffffffffffffffffffffffffffffffffffff163b119050919050565b6000604051905090565b600080fd5b600080fd5b60007fffffffff0000000000000000000000000000000000000000000000000000000082169050919050565b611e5381611e1e565b8114611e5e57600080fd5b50565b600081359050611e7081611e4a565b92915050565b600060208284031215611e8c57611e8b611e14565b5b6000611e9a84828501611e61565b91505092915050565b60008115159050919050565b611eb881611ea3565b82525050565b6000602082019050611ed36000830184611eaf565b92915050565b600081519050919050565b600082825260208201905092915050565b60005b83811015611f13578082015181840152602081019050611ef8565b83811115611f22576000848401525b50505050565b6000601f19601f8301169050919050565b6000611f4482611ed9565b611f4e8185611ee4565b9350611f5e818560208601611ef5565b611f6781611f28565b840191505092915050565b60006020820190508181036000830152611f8c8184611f39565b905092915050565b6000819050919050565b611fa781611f94565b8114611fb257600080fd5b50565b600081359050611fc481611f9e565b92915050565b600060208284031215611fe057611fdf611e14565b5b6000611fee84828501611fb5565b91505092915050565b600073ffffffffffffffffffffffffffffffffffffffff82169050919050565b600061202282611ff7565b9050919050565b61203281612017565b82525050565b600060208201905061204d6000830184612029565b92915050565b61205c81612017565b811461206757600080fd5b50565b60008135905061207981612053565b92915050565b6000806040838503121561209657612095611e14565b5b60006120a48582860161206a565b92505060206120b585828601611fb5565b9150509250929050565b6000819050919050565b6120d2816120bf565b81146120dd57600080fd5b50565b6000813590506120ef816120c9565b92915050565b60006020828403121561210b5761210a611e14565b5b6000612119848285016120e0565b91505092915050565b60008060006060848603121561213b5761213a611e14565b5b60006121498682870161206a565b935050602061215a8682870161206a565b925050604061216b86828701611fb5565b9150509250925092565b600080fd5b600080fd5b7f4e487b7100000000000000000000000000000000000000000000000000000000600052604160045260246000fd5b6121b782611f28565b810181811067ffffffffffffffff821117156121d6576121d561217f565b5b80604052505050565b60006121e9611e0a565b90506121f582826121ae565b919050565b600067ffffffffffffffff8211156122155761221461217f565b5b61221e82611f28565b9050602081019050919050565b82818337600083830152505050565b600061224d612248846121fa565b6121df565b9050828152602081018484840111156122695761226861217a565b5b61227484828561222b565b509392505050565b600082601f83011261229157612290612175565b5b81356122a184826020860161223a565b91505092915050565b6000602082840312156122c0576122bf611e14565b5b600082013567ffffffffffffffff8111156122de576122dd611e19565b5b6122ea8482850161227c565b91505092915050565b60006020828403121561230957612308611e14565b5b60006123178482850161206a565b91505092915050565b61232981611f94565b82525050565b60006020820190506123446000830184612320565b92915050565b61235381611ea3565b811461235e57600080fd5b50565b6000813590506123708161234a565b92915050565b6000806040838503121561238d5761238c611e14565b5b600061239b8582860161206a565b92505060206123ac85828601612361565b9150509250929050565b600067ffffffffffffffff8211156123d1576123d061217f565b5b6123da82611f28565b9050602081019050919050565b60006123fa6123f5846123b6565b6121df565b9050828152602081018484840111156124165761241561217a565b5b61242184828561222b565b509392505050565b600082601f83011261243e5761243d612175565b5b813561244e8482602086016123e7565b91505092915050565b6000806000806080858703121561247157612470611e14565b5b600061247f8782880161206a565b94505060206124908782880161206a565b93505060406124a187828801611fb5565b925050606085013567ffffffffffffffff8111156124c2576124c1611e19565b5b6124ce87828801612429565b91505092959194509250565b6124e3816120bf565b82525050565b60006020820190506124fe60008301846124da565b92915050565b6000806040838503121561251b5761251a611e14565b5b60006125298582860161206a565b925050602061253a8582860161206a565b9150509250929050565b7f4e487b7100000000000000000000000000000000000000000000000000000000600052602260045260246000fd5b6000600282049050600182168061258b57607f821691505b6020821081141561259f5761259e612544565b5b50919050565b7f4552433732313a20617070726f76616c20746f2063757272656e74206f776e6560008201527f7200000000000000000000000000000000000000000000000000000000000000602082015250565b6000612601602183611ee4565b915061260c826125a5565b604082019050919050565b60006020820190508181036000830152612630816125f4565b9050919050565b7f4552433732313a20617070726f76652063616c6c6572206973206e6f7420746f60008201527f6b656e206f776e6572206f7220617070726f76656420666f7220616c6c000000602082015250565b6000612693603d83611ee4565b915061269e82612637565b604082019050919050565b600060208201905081810360008301526126c281612686565b9050919050565b7f4e487b7100000000000000000000000000000000000000000000000000000000600052601160045260246000fd5b600061270382611f94565b915061270e83611f94565b9250827fffffffffffffffffffffffffffffffffffffffffffffffffffffffffffffffff03821115612743576127426126c9565b5b828201905092915050565b7f4552433732313a2063616c6c6572206973206e6f7420746f6b656e206f776e6560008201527f72206f7220617070726f76656400000000000000000000000000000000000000602082015250565b60006127aa602d83611ee4565b91506127b58261274e565b604082019050919050565b600060208201905081810360008301526127d98161279d565b9050919050565b600081905092915050565b60006127f682611ed9565b61280081856127e0565b9350612810818560208601611ef5565b80840191505092915050565b600061282882846127eb565b915081905092915050565b600061283f82856127eb565b915061284b82846127eb565b91508190509392505050565b7f4552433732313a20696e76616c696420746f6b656e2049440000000000000000600082015250565b600061288d601883611ee4565b915061289882612857565b602082019050919050565b600060208201905081810360008301526128bc81612880565b9050919050565b7f4552433732313a2061646472657373207a65726f206973206e6f74206120766160008201527f6c6964206f776e65720000000000000000000000000000000000000000000000602082015250565b600061291f602983611ee4565b915061292a826128c3565b604082019050919050565b6000602082019050818103600083015261294e81612912565b9050919050565b7f75726920717565727920666f72206e6f6e2d6578697374656e7420746f6b656e600082015250565b600061298b602083611ee4565b915061299682612955565b602082019050919050565b600060208201905081810360008301526129ba8161297e565b9050919050565b600069ffffffffffffffffffff82169050919050565b6129e0816129c1565b81146129eb57600080fd5b50565b6000815190506129fd816129d7565b92915050565b600081519050612a12816120c9565b92915050565b600081519050612a2781611f9e565b92915050565b600080600080600060a08688031215612a4957612a48611e14565b5b6000612a57888289016129ee565b9550506020612a6888828901612a03565b9450506040612a7988828901612a18565b9350506060612a8a88828901612a18565b9250506080612a9b888289016129ee565b9150509295509295909350565b7f7b226e616d65223a220000000000000000000000000000000000000000000000600082015250565b6000612ade6009836127e0565b9150612ae982612aa8565b600982019050919050565b7f222c226465736372697074696f6e3a22416e204e46542074686174206368616e60008201527f676573206261736564206f6e2074686520636861696e6c696e6b20707269636560208201527f2066656564222c00000000000000000000000000000000000000000000000000604082015250565b6000612b766047836127e0565b9150612b8182612af4565b604782019050919050565b7f2261747472696275746573223a5b2274726169745f74797065223a22636f6f6c60008201527f6e657373222c202276616c7565223a3130305d2c22696d616765223a20220000602082015250565b6000612be8603e836127e0565b9150612bf382612b8c565b603e82019050919050565b7f227d000000000000000000000000000000000000000000000000000000000000600082015250565b6000612c346002836127e0565b9150612c3f82612bfe565b600282019050919050565b6000612c5582612ad1565b9150612c6182856127eb565b9150612c6c82612b69565b9150612c7782612bdb565b9150612c8382846127eb565b9150612c8e82612c27565b91508190509392505050565b7f4f776e61626c653a206e6577206f776e657220697320746865207a65726f206160008201527f6464726573730000000000000000000000000000000000000000000000000000602082015250565b6000612cf6602683611ee4565b9150612d0182612c9a565b604082019050919050565b60006020820190508181036000830152612d2581612ce9565b9050919050565b7f4e487b7100000000000000000000000000000000000000000000000000000000600052601260045260246000fd5b6000612d6682611f94565b9150612d7183611f94565b925082612d8157612d80612d2c565b5b828204905092915050565b6000612d9782611f94565b9150612da283611f94565b9250817fffffffffffffffffffffffffffffffffffffffffffffffffffffffffffffffff0483118215151615612ddb57612dda6126c9565b5b828202905092915050565b7f4552433732313a207472616e736665722066726f6d20696e636f72726563742060008201527f6f776e6572000000000000000000000000000000000000000000000000000000602082015250565b6000612e42602583611ee4565b9150612e4d82612de6565b604082019050919050565b60006020820190508181036000830152612e7181612e35565b9050919050565b7f4552433732313a207472616e7366657220746f20746865207a65726f2061646460008201527f7265737300000000000000000000000000000000000000000000000000000000602082015250565b6000612ed4602483611ee4565b9150612edf82612e78565b604082019050919050565b60006020820190508181036000830152612f0381612ec7565b9050919050565b7f4f776e61626c653a2063616c6c6572206973206e6f7420746865206f776e6572600082015250565b6000612f40602083611ee4565b9150612f4b82612f0a565b602082019050919050565b60006020820190508181036000830152612f6f81612f33565b9050919050565b7f4552433732313a20617070726f766520746f2063616c6c657200000000000000600082015250565b6000612fac601983611ee4565b9150612fb782612f76565b602082019050919050565b60006020820190508181036000830152612fdb81612f9f565b9050919050565b7f4552433732313a207472616e7366657220746f206e6f6e20455243373231526560008201527f63656976657220696d706c656d656e7465720000000000000000000000000000602082015250565b600061303e603283611ee4565b915061304982612fe2565b604082019050919050565b6000602082019050818103600083015261306d81613031565b9050919050565b600061307f82611f94565b915061308a83611f94565b92508282101561309d5761309c6126c9565b5b828203905092915050565b600081519050919050565b600082825260208201905092915050565b60006130cf826130a8565b6130d981856130b3565b93506130e9818560208601611ef5565b6130f281611f28565b840191505092915050565b60006080820190506131126000830187612029565b61311f6020830186612029565b61312c6040830185612320565b818103606083015261313e81846130c4565b905095945050505050565b60008151905061315881611e4a565b92915050565b60006020828403121561317457613173611e14565b5b600061318284828501613149565b91505092915050565b7f4552433732313a206d696e7420746f20746865207a65726f2061646472657373600082015250565b60006131c1602083611ee4565b91506131cc8261318b565b602082019050919050565b600060208201905081810360008301526131f0816131b4565b9050919050565b7f4552433732313a20746f6b656e20616c7265616479206d696e74656400000000600082015250565b600061322d601c83611ee4565b9150613238826131f7565b602082019050919050565b6000602082019050818103600083015261325c81613220565b905091905056fe4142434445464748494a4b4c4d4e4f505152535455565758595a6162636465666768696a6b6c6d6e6f707172737475767778797a303132333435363738392b2fa2646970667358221220eb4ed32a49f5e618bdec2fb74982acd681473fd43c1f1e61b4664a29e2dcb11b64736f6c634300080a00334142434445464748494a4b4c4d4e4f505152535455565758595a6162636465666768696a6b6c6d6e6f707172737475767778797a303132333435363738392b2f",
  "linkReferences": {},
  "deployedLinkReferences": {}
}