{
  "_format": "hh-sol-artifact-1",
  "contractName": "RandomIpfsNft",
  "sourceName": "contracts/RandomIpfsNft.sol",
  "abi": [
    {
      "inputs": [
        {
          "internalType": "address",
          "name": "vrfCoordinatorV2",
          "type": "address"
        },
        {
          "internalType": "uint64",
          "name": "subscriptionId",
          "type": "uint64"
        },
        {
          "internalType": "bytes32",
          "name": "gaslane",
          "type": "bytes32"
        },
        {
          "internalType": "uint32",
          "name": "callbackGasLimit",
          "type": "uint32"
        },
        {
          "internalType": "uint256",
          "name": "mintFee",
          "type": "uint256"
        },
        {
          "internalType": "string[3]",
          "name": "dogTokensUris",
          "type": "string[3]"
        }
      ],
      "stateMutability": "nonpayable",
      "type": "constructor"
    },
    {
      "inputs": [
        {
          "internalType": "address",
          "name": "have",
          "type": "address"
        },
        {
          "internalType": "address",
          "name": "want",
          "type": "address"
        }
      ],
      "name": "OnlyCoordinatorCanFulfill",
      "type": "error"
    },
    {
      "inputs": [],
      "name": "RandomIpfsNft__boundOverflow",
      "type": "error"
    },
    {
      "inputs": [],
      "name": "RandomIpfsNft__insufficientETH",
      "type": "error"
    },
    {
      "inputs": [],
      "name": "RandomIpfsNft__transferFailed",
      "type": "error"
    },
    {
      "anonymous": false,
      "inputs": [
        {
          "indexed": true,
          "internalType": "address",
          "name": "owner",
          "type": "address"
        },
        {
          "indexed": true,
          "internalType": "address",
          "name": "approved",
          "type": "address"
        },
        {
          "indexed": true,
          "internalType": "uint256",
          "name": "tokenId",
          "type": "uint256"
        }
      ],
      "name": "Approval",
      "type": "event"
    },
    {
      "anonymous": false,
      "inputs": [
        {
          "indexed": true,
          "internalType": "address",
          "name": "owner",
          "type": "address"
        },
        {
          "indexed": true,
          "internalType": "address",
          "name": "operator",
          "type": "address"
        },
        {
          "indexed": false,
          "internalType": "bool",
          "name": "approved",
          "type": "bool"
        }
      ],
      "name": "ApprovalForAll",
      "type": "event"
    },
    {
      "anonymous": false,
      "inputs": [
        {
          "indexed": false,
          "internalType": "enum RandomIpfsNft.Breed",
          "name": "Dogbreed",
          "type": "uint8"
        },
        {
          "indexed": false,
          "internalType": "address",
          "name": "minter",
          "type": "address"
        }
      ],
      "name": "NftMinte",
      "type": "event"
    },
    {
      "anonymous": false,
      "inputs": [
        {
          "indexed": true,
          "internalType": "uint256",
          "name": "requestid",
          "type": "uint256"
        },
        {
          "indexed": false,
          "internalType": "address",
          "name": "requestor",
          "type": "address"
        }
      ],
      "name": "NftRequested",
      "type": "event"
    },
    {
      "anonymous": false,
      "inputs": [
        {
          "indexed": true,
          "internalType": "address",
          "name": "previousOwner",
          "type": "address"
        },
        {
          "indexed": true,
          "internalType": "address",
          "name": "newOwner",
          "type": "address"
        }
      ],
      "name": "OwnershipTransferred",
      "type": "event"
    },
    {
      "anonymous": false,
      "inputs": [
        {
          "indexed": true,
          "internalType": "address",
          "name": "from",
          "type": "address"
        },
        {
          "indexed": true,
          "internalType": "address",
          "name": "to",
          "type": "address"
        },
        {
          "indexed": true,
          "internalType": "uint256",
          "name": "tokenId",
          "type": "uint256"
        }
      ],
      "name": "Transfer",
      "type": "event"
    },
    {
      "inputs": [
        {
          "internalType": "address",
          "name": "to",
          "type": "address"
        },
        {
          "internalType": "uint256",
          "name": "tokenId",
          "type": "uint256"
        }
      ],
      "name": "approve",
      "outputs": [],
      "stateMutability": "nonpayable",
      "type": "function"
    },
    {
      "inputs": [
        {
          "internalType": "address",
          "name": "owner",
          "type": "address"
        }
      ],
      "name": "balanceOf",
      "outputs": [
        {
          "internalType": "uint256",
          "name": "",
          "type": "uint256"
        }
      ],
      "stateMutability": "view",
      "type": "function"
    },
    {
      "inputs": [
        {
          "internalType": "uint256",
          "name": "tokenId",
          "type": "uint256"
        }
      ],
      "name": "getApproved",
      "outputs": [
        {
          "internalType": "address",
          "name": "",
          "type": "address"
        }
      ],
      "stateMutability": "view",
      "type": "function"
    },
    {
      "inputs": [
        {
          "internalType": "uint256",
          "name": "moddedrng",
          "type": "uint256"
        }
      ],
      "name": "getBreedFromModdedRng",
      "outputs": [
        {
          "internalType": "enum RandomIpfsNft.Breed",
          "name": "",
          "type": "uint8"
        }
      ],
      "stateMutability": "pure",
      "type": "function"
    },
    {
      "inputs": [],
      "name": "getChanceArray",
      "outputs": [
        {
          "internalType": "uint256[3]",
          "name": "",
          "type": "uint256[3]"
        }
      ],
      "stateMutability": "pure",
      "type": "function"
    },
    {
      "inputs": [],
      "name": "getMintFee",
      "outputs": [
        {
          "internalType": "uint256",
          "name": "",
          "type": "uint256"
        }
      ],
      "stateMutability": "view",
      "type": "function"
    },
    {
      "inputs": [],
      "name": "getTokenCounter",
      "outputs": [
        {
          "internalType": "uint256",
          "name": "",
          "type": "uint256"
        }
      ],
      "stateMutability": "view",
      "type": "function"
    },
    {
      "inputs": [
        {
          "internalType": "uint256",
          "name": "index",
          "type": "uint256"
        }
      ],
      "name": "gettokenURI",
      "outputs": [
        {
          "internalType": "string",
          "name": "",
          "type": "string"
        }
      ],
      "stateMutability": "view",
      "type": "function"
    },
    {
      "inputs": [
        {
          "internalType": "address",
          "name": "owner",
          "type": "address"
        },
        {
          "internalType": "address",
          "name": "operator",
          "type": "address"
        }
      ],
      "name": "isApprovedForAll",
      "outputs": [
        {
          "internalType": "bool",
          "name": "",
          "type": "bool"
        }
      ],
      "stateMutability": "view",
      "type": "function"
    },
    {
      "inputs": [],
      "name": "name",
      "outputs": [
        {
          "internalType": "string",
          "name": "",
          "type": "string"
        }
      ],
      "stateMutability": "view",
      "type": "function"
    },
    {
      "inputs": [],
      "name": "owner",
      "outputs": [
        {
          "internalType": "address",
          "name": "",
          "type": "address"
        }
      ],
      "stateMutability": "view",
      "type": "function"
    },
    {
      "inputs": [
        {
          "internalType": "uint256",
          "name": "tokenId",
          "type": "uint256"
        }
      ],
      "name": "ownerOf",
      "outputs": [
        {
          "internalType": "address",
          "name": "",
          "type": "address"
        }
      ],
      "stateMutability": "view",
      "type": "function"
    },
    {
      "inputs": [
        {
          "internalType": "uint256",
          "name": "requestId",
          "type": "uint256"
        },
        {
          "internalType": "uint256[]",
          "name": "randomWords",
          "type": "uint256[]"
        }
      ],
      "name": "rawFulfillRandomWords",
      "outputs": [],
      "stateMutability": "nonpayable",
      "type": "function"
    },
    {
      "inputs": [],
      "name": "renounceOwnership",
      "outputs": [],
      "stateMutability": "nonpayable",
      "type": "function"
    },
    {
      "inputs": [],
      "name": "requestNft",
      "outputs": [
        {
          "internalType": "uint256",
          "name": "requesId",
          "type": "uint256"
        }
      ],
      "stateMutability": "payable",
      "type": "function"
    },
    {
      "inputs": [
        {
          "internalType": "uint256",
          "name": "",
          "type": "uint256"
        }
      ],
      "name": "s_requestIdToSender",
      "outputs": [
        {
          "internalType": "address",
          "name": "",
          "type": "address"
        }
      ],
      "stateMutability": "view",
      "type": "function"
    },
    {
      "inputs": [],
      "name": "s_tokenCounter",
      "outputs": [
        {
          "internalType": "uint256",
          "name": "",
          "type": "uint256"
        }
      ],
      "stateMutability": "view",
      "type": "function"
    },
    {
      "inputs": [
        {
          "internalType": "address",
          "name": "from",
          "type": "address"
        },
        {
          "internalType": "address",
          "name": "to",
          "type": "address"
        },
        {
          "internalType": "uint256",
          "name": "tokenId",
          "type": "uint256"
        }
      ],
      "name": "safeTransferFrom",
      "outputs": [],
      "stateMutability": "nonpayable",
      "type": "function"
    },
    {
      "inputs": [
        {
          "internalType": "address",
          "name": "from",
          "type": "address"
        },
        {
          "internalType": "address",
          "name": "to",
          "type": "address"
        },
        {
          "internalType": "uint256",
          "name": "tokenId",
          "type": "uint256"
        },
        {
          "internalType": "bytes",
          "name": "data",
          "type": "bytes"
        }
      ],
      "name": "safeTransferFrom",
      "outputs": [],
      "stateMutability": "nonpayable",
      "type": "function"
    },
    {
      "inputs": [
        {
          "internalType": "address",
          "name": "operator",
          "type": "address"
        },
        {
          "internalType": "bool",
          "name": "approved",
          "type": "bool"
        }
      ],
      "name": "setApprovalForAll",
      "outputs": [],
      "stateMutability": "nonpayable",
      "type": "function"
    },
    {
      "inputs": [
        {
          "internalType": "bytes4",
          "name": "interfaceId",
          "type": "bytes4"
        }
      ],
      "name": "supportsInterface",
      "outputs": [
        {
          "internalType": "bool",
          "name": "",
          "type": "bool"
        }
      ],
      "stateMutability": "view",
      "type": "function"
    },
    {
      "inputs": [],
      "name": "symbol",
      "outputs": [
        {
          "internalType": "string",
          "name": "",
          "type": "string"
        }
      ],
      "stateMutability": "view",
      "type": "function"
    },
    {
      "inputs": [
        {
          "internalType": "uint256",
          "name": "tokenId",
          "type": "uint256"
        }
      ],
      "name": "tokenURI",
      "outputs": [
        {
          "internalType": "string",
          "name": "",
          "type": "string"
        }
      ],
      "stateMutability": "view",
      "type": "function"
    },
    {
      "inputs": [
        {
          "internalType": "address",
          "name": "from",
          "type": "address"
        },
        {
          "internalType": "address",
          "name": "to",
          "type": "address"
        },
        {
          "internalType": "uint256",
          "name": "tokenId",
          "type": "uint256"
        }
      ],
      "name": "transferFrom",
      "outputs": [],
      "stateMutability": "nonpayable",
      "type": "function"
    },
    {
      "inputs": [
        {
          "internalType": "address",
          "name": "newOwner",
          "type": "address"
        }
      ],
      "name": "transferOwnership",
      "outputs": [],
      "stateMutability": "nonpayable",
      "type": "function"
    },
    {
      "inputs": [],
      "name": "withdraw",
      "outputs": [],
      "stateMutability": "nonpayable",
      "type": "function"
    }
  ],
  "bytecode": "0x6101206040523480156200001257600080fd5b506040516200444b3803806200444b833981810160405281019062000038919062000714565b6040518060400160405280600f81526020017f52616e646f6d2049504653204e465400000000000000000000000000000000008152506040518060400160405280600381526020017f52494e0000000000000000000000000000000000000000000000000000000000815250878073ffffffffffffffffffffffffffffffffffffffff1660808173ffffffffffffffffffffffffffffffffffffffff1681525050508160009080519060200190620000f29291906200027c565b5080600190805190602001906200010b9291906200027c565b5050506200012e62000122620001ae60201b60201c565b620001b660201b60201c565b8573ffffffffffffffffffffffffffffffffffffffff1660a08173ffffffffffffffffffffffffffffffffffffffff16815250508467ffffffffffffffff1660c08167ffffffffffffffff16815250508263ffffffff1660e08163ffffffff16815250508360088190555081610100818152505050505050505062000834565b600033905090565b6000600760009054906101000a900473ffffffffffffffffffffffffffffffffffffffff16905081600760006101000a81548173ffffffffffffffffffffffffffffffffffffffff021916908373ffffffffffffffffffffffffffffffffffffffff1602179055508173ffffffffffffffffffffffffffffffffffffffff168173ffffffffffffffffffffffffffffffffffffffff167f8be0079c531659141344cd1fd0a4f28419497f9722a3daafe3b4186f6b6457e060405160405180910390a35050565b8280546200028a90620007fe565b90600052602060002090601f016020900481019282620002ae5760008555620002fa565b82601f10620002c957805160ff1916838001178555620002fa565b82800160010185558215620002fa579182015b82811115620002f9578251825591602001919060010190620002dc565b5b5090506200030991906200030d565b5090565b5b80821115620003285760008160009055506001016200030e565b5090565b6000604051905090565b600080fd5b600080fd5b600073ffffffffffffffffffffffffffffffffffffffff82169050919050565b60006200036d8262000340565b9050919050565b6200037f8162000360565b81146200038b57600080fd5b50565b6000815190506200039f8162000374565b92915050565b600067ffffffffffffffff82169050919050565b620003c481620003a5565b8114620003d057600080fd5b50565b600081519050620003e481620003b9565b92915050565b6000819050919050565b620003ff81620003ea565b81146200040b57600080fd5b50565b6000815190506200041f81620003f4565b92915050565b600063ffffffff82169050919050565b620004408162000425565b81146200044c57600080fd5b50565b600081519050620004608162000435565b92915050565b6000819050919050565b6200047b8162000466565b81146200048757600080fd5b50565b6000815190506200049b8162000470565b92915050565b600080fd5b6000601f19601f8301169050919050565b7f4e487b7100000000000000000000000000000000000000000000000000000000600052604160045260246000fd5b620004f182620004a6565b810181811067ffffffffffffffff82111715620005135762000512620004b7565b5b80604052505050565b6000620005286200032c565b9050620005368282620004e6565b919050565b600067ffffffffffffffff821115620005595762000558620004b7565b5b602082029050919050565b600080fd5b600080fd5b600067ffffffffffffffff8211156200058c576200058b620004b7565b5b6200059782620004a6565b9050602081019050919050565b60005b83811015620005c4578082015181840152602081019050620005a7565b83811115620005d4576000848401525b50505050565b6000620005f1620005eb846200056e565b6200051c565b90508281526020810184848401111562000610576200060f62000569565b5b6200061d848285620005a4565b509392505050565b600082601f8301126200063d576200063c620004a1565b5b81516200064f848260208601620005da565b91505092915050565b60006200066f62000669846200053b565b6200051c565b905080602084028301858111156200068c576200068b62000564565b5b835b81811015620006da57805167ffffffffffffffff811115620006b557620006b4620004a1565b5b808601620006c4898262000625565b855260208501945050506020810190506200068e565b5050509392505050565b600082601f830112620006fc57620006fb620004a1565b5b60036200070b84828562000658565b91505092915050565b60008060008060008060c0878903121562000734576200073362000336565b5b60006200074489828a016200038e565b96505060206200075789828a01620003d3565b95505060406200076a89828a016200040e565b94505060606200077d89828a016200044f565b93505060806200079089828a016200048a565b92505060a087015167ffffffffffffffff811115620007b457620007b36200033b565b5b620007c289828a01620006e4565b9150509295509295509295565b7f4e487b7100000000000000000000000000000000000000000000000000000000600052602260045260246000fd5b600060028204905060018216806200081757607f821691505b602082108114156200082e576200082d620007cf565b5b50919050565b60805160a05160c05160e05161010051613bc46200088760003960008181610c9b0152610eaa01526000610f6601526000610f4301526000610f0401526000818161091d01526109710152613bc46000f3fe6080604052600436106101815760003560e01c8063715018a6116100d1578063a51cccf31161008a578063c87b56dd11610064578063c87b56dd14610563578063e985e9c5146105a0578063f2fde38b146105dd578063f3f0cd7f1461060657610181565b8063a51cccf3146104df578063aa1524911461051c578063b88d4fde1461053a57610181565b8063715018a6146103e15780637a5caab3146103f85780638da5cb5b1461042357806395d89b411461044e578063a22cb46514610479578063a36f573b146104a257610181565b806323b872dd1161013e5780635dacf5f4116101185780635dacf5f4146103115780636352211e1461033c5780636e02007d1461037957806370a08231146103a457610181565b806323b872dd146102a85780633ccfd60b146102d157806342842e0e146102e857610181565b806301ffc9a71461018657806306fdde03146101c3578063081812fc146101ee578063095ea7b31461022b5780630b21a83b146102545780631fe543e31461027f575b600080fd5b34801561019257600080fd5b506101ad60048036038101906101a891906127a3565b610643565b6040516101ba91906127eb565b60405180910390f35b3480156101cf57600080fd5b506101d8610725565b6040516101e5919061289f565b60405180910390f35b3480156101fa57600080fd5b50610215600480360381019061021091906128f7565b6107b7565b6040516102229190612965565b60405180910390f35b34801561023757600080fd5b50610252600480360381019061024d91906129ac565b6107fd565b005b34801561026057600080fd5b50610269610915565b60405161027691906129fb565b60405180910390f35b34801561028b57600080fd5b506102a660048036038101906102a19190612b5e565b61091b565b005b3480156102b457600080fd5b506102cf60048036038101906102ca9190612bba565b6109db565b005b3480156102dd57600080fd5b506102e6610a3b565b005b3480156102f457600080fd5b5061030f600480360381019061030a9190612bba565b610aef565b005b34801561031d57600080fd5b50610326610b0f565b6040516103339190612cb8565b60405180910390f35b34801561034857600080fd5b50610363600480360381019061035e91906128f7565b610b3a565b6040516103709190612965565b60405180910390f35b34801561038557600080fd5b5061038e610bc1565b60405161039b91906129fb565b60405180910390f35b3480156103b057600080fd5b506103cb60048036038101906103c69190612cd3565b610bcb565b6040516103d891906129fb565b60405180910390f35b3480156103ed57600080fd5b506103f6610c83565b005b34801561040457600080fd5b5061040d610c97565b60405161041a91906129fb565b60405180910390f35b34801561042f57600080fd5b50610438610cbf565b6040516104459190612965565b60405180910390f35b34801561045a57600080fd5b50610463610ce9565b604051610470919061289f565b60405180910390f35b34801561048557600080fd5b506104a0600480360381019061049b9190612d2c565b610d7b565b005b3480156104ae57600080fd5b506104c960048036038101906104c491906128f7565b610d91565b6040516104d69190612965565b60405180910390f35b3480156104eb57600080fd5b50610506600480360381019061050191906128f7565b610dc4565b6040516105139190612de3565b60405180910390f35b610524610ea6565b60405161053191906129fb565b60405180910390f35b34801561054657600080fd5b50610561600480360381019061055c9190612eb3565b611079565b005b34801561056f57600080fd5b5061058a600480360381019061058591906128f7565b6110db565b604051610597919061289f565b60405180910390f35b3480156105ac57600080fd5b506105c760048036038101906105c29190612f36565b6111ee565b6040516105d491906127eb565b60405180910390f35b3480156105e957600080fd5b5061060460048036038101906105ff9190612cd3565b611282565b005b34801561061257600080fd5b5061062d600480360381019061062891906128f7565b611306565b60405161063a919061289f565b60405180910390f35b60007f80ac58cd000000000000000000000000000000000000000000000000000000007bffffffffffffffffffffffffffffffffffffffffffffffffffffffff1916827bffffffffffffffffffffffffffffffffffffffffffffffffffffffff1916148061070e57507f5b5e139f000000000000000000000000000000000000000000000000000000007bffffffffffffffffffffffffffffffffffffffffffffffffffffffff1916827bffffffffffffffffffffffffffffffffffffffffffffffffffffffff1916145b8061071e575061071d826113b6565b5b9050919050565b60606000805461073490612fa5565b80601f016020809104026020016040519081016040528092919081815260200182805461076090612fa5565b80156107ad5780601f10610782576101008083540402835291602001916107ad565b820191906000526020600020905b81548152906001019060200180831161079057829003601f168201915b5050505050905090565b60006107c282611420565b6004600083815260200190815260200160002060009054906101000a900473ffffffffffffffffffffffffffffffffffffffff169050919050565b600061080882610b3a565b90508073ffffffffffffffffffffffffffffffffffffffff168373ffffffffffffffffffffffffffffffffffffffff161415610879576040517f08c379a000000000000000000000000000000000000000000000000000000000815260040161087090613049565b60405180910390fd5b8073ffffffffffffffffffffffffffffffffffffffff1661089861146b565b73ffffffffffffffffffffffffffffffffffffffff1614806108c757506108c6816108c161146b565b6111ee565b5b610906576040517f08c379a00000000000000000000000000000000000000000000000000000000081526004016108fd906130db565b60405180910390fd5b6109108383611473565b505050565b600a5481565b7f000000000000000000000000000000000000000000000000000000000000000073ffffffffffffffffffffffffffffffffffffffff163373ffffffffffffffffffffffffffffffffffffffff16146109cd57337f00000000000000000000000000000000000000000000000000000000000000006040517f1cf993f40000000000000000000000000000000000000000000000000000000081526004016109c49291906130fb565b60405180910390fd5b6109d7828261152c565b5050565b6109ec6109e661146b565b826116cc565b610a2b576040517f08c379a0000000000000000000000000000000000000000000000000000000008152600401610a2290613196565b60405180910390fd5b610a36838383611761565b505050565b610a43611a5b565b600047905060003373ffffffffffffffffffffffffffffffffffffffff1682604051610a6e906131e7565b60006040518083038185875af1925050503d8060008114610aab576040519150601f19603f3d011682016040523d82523d6000602084013e610ab0565b606091505b5050905080610aeb576040517f2193014600000000000000000000000000000000000000000000000000000000815260040160405180910390fd5b5050565b610b0a83838360405180602001604052806000815250611079565b505050565b610b17612672565b6040518060600160405280600a8152602001601e81526020016064815250905090565b600080610b4683611ad9565b9050600073ffffffffffffffffffffffffffffffffffffffff168173ffffffffffffffffffffffffffffffffffffffff161415610bb8576040517f08c379a0000000000000000000000000000000000000000000000000000000008152600401610baf90613248565b60405180910390fd5b80915050919050565b6000600a54905090565b60008073ffffffffffffffffffffffffffffffffffffffff168273ffffffffffffffffffffffffffffffffffffffff161415610c3c576040517f08c379a0000000000000000000000000000000000000000000000000000000008152600401610c33906132da565b60405180910390fd5b600360008373ffffffffffffffffffffffffffffffffffffffff1673ffffffffffffffffffffffffffffffffffffffff168152602001908152602001600020549050919050565b610c8b611a5b565b610c956000611b16565b565b60007f0000000000000000000000000000000000000000000000000000000000000000905090565b6000600760009054906101000a900473ffffffffffffffffffffffffffffffffffffffff16905090565b606060018054610cf890612fa5565b80601f0160208091040260200160405190810160405280929190818152602001828054610d2490612fa5565b8015610d715780601f10610d4657610100808354040283529160200191610d71565b820191906000526020600020905b815481529060010190602001808311610d5457829003601f168201915b5050505050905090565b610d8d610d8661146b565b8383611bdc565b5050565b60096020528060005260406000206000915054906101000a900473ffffffffffffffffffffffffffffffffffffffff1681565b600080600090506000610dd5610b0f565b905060005b6003811015610e6e57828510158015610e145750818160038110610e0157610e006132fa565b5b602002015183610e119190613358565b85105b15610e3657806002811115610e2c57610e2b612d6c565b5b9350505050610ea1565b818160038110610e4957610e486132fa565b5b602002015183610e599190613358565b92508080610e66906133ae565b915050610dda565b506040517fae336a8300000000000000000000000000000000000000000000000000000000815260040160405180910390fd5b919050565b60007f0000000000000000000000000000000000000000000000000000000000000000341015610f02576040517f1aaa0af400000000000000000000000000000000000000000000000000000000815260040160405180910390fd5b7f000000000000000000000000000000000000000000000000000000000000000073ffffffffffffffffffffffffffffffffffffffff16635d3b1d306008547f000000000000000000000000000000000000000000000000000000000000000060037f000000000000000000000000000000000000000000000000000000000000000060016040518663ffffffff1660e01b8152600401610fa795949392919061346f565b6020604051808303816000875af1158015610fc6573d6000803e3d6000fd5b505050506040513d601f19601f82011682018060405250810190610fea91906134d7565b9050336009600083815260200190815260200160002060006101000a81548173ffffffffffffffffffffffffffffffffffffffff021916908373ffffffffffffffffffffffffffffffffffffffff160217905550807ff873236e6cc0ecc5be1a9a35c95ee5b8d1ac4cc7bfef0cc5060391d6cc98e26b3360405161106e9190612965565b60405180910390a290565b61108a61108461146b565b836116cc565b6110c9576040517f08c379a00000000000000000000000000000000000000000000000000000000081526004016110c090613196565b60405180910390fd5b6110d584848484611d49565b50505050565b60606110e682611420565b600060066000848152602001908152602001600020805461110690612fa5565b80601f016020809104026020016040519081016040528092919081815260200182805461113290612fa5565b801561117f5780601f106111545761010080835404028352916020019161117f565b820191906000526020600020905b81548152906001019060200180831161116257829003601f168201915b505050505090506000611190611da5565b90506000815114156111a65781925050506111e9565b6000825111156111db5780826040516020016111c3929190613540565b604051602081830303815290604052925050506111e9565b6111e484611dbc565b925050505b919050565b6000600560008473ffffffffffffffffffffffffffffffffffffffff1673ffffffffffffffffffffffffffffffffffffffff16815260200190815260200160002060008373ffffffffffffffffffffffffffffffffffffffff1673ffffffffffffffffffffffffffffffffffffffff16815260200190815260200160002060009054906101000a900460ff16905092915050565b61128a611a5b565b600073ffffffffffffffffffffffffffffffffffffffff168173ffffffffffffffffffffffffffffffffffffffff1614156112fa576040517f08c379a00000000000000000000000000000000000000000000000000000000081526004016112f1906135d6565b60405180910390fd5b61130381611b16565b50565b6060600b828154811061131c5761131b6132fa565b5b90600052602060002001805461133190612fa5565b80601f016020809104026020016040519081016040528092919081815260200182805461135d90612fa5565b80156113aa5780601f1061137f576101008083540402835291602001916113aa565b820191906000526020600020905b81548152906001019060200180831161138d57829003601f168201915b50505050509050919050565b60007f01ffc9a7000000000000000000000000000000000000000000000000000000007bffffffffffffffffffffffffffffffffffffffffffffffffffffffff1916827bffffffffffffffffffffffffffffffffffffffffffffffffffffffff1916149050919050565b61142981611e24565b611468576040517f08c379a000000000000000000000000000000000000000000000000000000000815260040161145f90613248565b60405180910390fd5b50565b600033905090565b816004600083815260200190815260200160002060006101000a81548173ffffffffffffffffffffffffffffffffffffffff021916908373ffffffffffffffffffffffffffffffffffffffff160217905550808273ffffffffffffffffffffffffffffffffffffffff166114e683610b3a565b73ffffffffffffffffffffffffffffffffffffffff167f8c5be1e5ebec7d5bd14f71427d1e84f3dd0314c0f7b2291e5b200ac8c7c3b92560405160405180910390a45050565b60006009600084815260200190815260200160002060009054906101000a900473ffffffffffffffffffffffffffffffffffffffff1690506000600a5490506000606484600081518110611583576115826132fa565b5b60200260200101516115959190613625565b905060006115a282610dc4565b9050600a54600a60008282546115b89190613358565b925050819055506115c98484611e65565b61168b83600b8360028111156115e2576115e1612d6c565b5b815481106115f3576115f26132fa565b5b90600052602060002001805461160890612fa5565b80601f016020809104026020016040519081016040528092919081815260200182805461163490612fa5565b80156116815780601f1061165657610100808354040283529160200191611681565b820191906000526020600020905b81548152906001019060200180831161166457829003601f168201915b5050505050611e83565b7fa39faadaa2ab5c2faa729b29a9d5529c0a7984708220a3f08f8c6bfb2250f0fe81856040516116bc929190613656565b60405180910390a1505050505050565b6000806116d883610b3a565b90508073ffffffffffffffffffffffffffffffffffffffff168473ffffffffffffffffffffffffffffffffffffffff16148061171a575061171981856111ee565b5b8061175857508373ffffffffffffffffffffffffffffffffffffffff16611740846107b7565b73ffffffffffffffffffffffffffffffffffffffff16145b91505092915050565b8273ffffffffffffffffffffffffffffffffffffffff1661178182610b3a565b73ffffffffffffffffffffffffffffffffffffffff16146117d7576040517f08c379a00000000000000000000000000000000000000000000000000000000081526004016117ce906136f1565b60405180910390fd5b600073ffffffffffffffffffffffffffffffffffffffff168273ffffffffffffffffffffffffffffffffffffffff161415611847576040517f08c379a000000000000000000000000000000000000000000000000000000000815260040161183e90613783565b60405180910390fd5b6118548383836001611ef7565b8273ffffffffffffffffffffffffffffffffffffffff1661187482610b3a565b73ffffffffffffffffffffffffffffffffffffffff16146118ca576040517f08c379a00000000000000000000000000000000000000000000000000000000081526004016118c1906136f1565b60405180910390fd5b6004600082815260200190815260200160002060006101000a81549073ffffffffffffffffffffffffffffffffffffffff02191690556001600360008573ffffffffffffffffffffffffffffffffffffffff1673ffffffffffffffffffffffffffffffffffffffff168152602001908152602001600020600082825403925050819055506001600360008473ffffffffffffffffffffffffffffffffffffffff1673ffffffffffffffffffffffffffffffffffffffff16815260200190815260200160002060008282540192505081905550816002600083815260200190815260200160002060006101000a81548173ffffffffffffffffffffffffffffffffffffffff021916908373ffffffffffffffffffffffffffffffffffffffff160217905550808273ffffffffffffffffffffffffffffffffffffffff168473ffffffffffffffffffffffffffffffffffffffff167fddf252ad1be2c89b69c2b068fc378daa952ba7f163c4a11628f55a4df523b3ef60405160405180910390a4611a56838383600161201d565b505050565b611a6361146b565b73ffffffffffffffffffffffffffffffffffffffff16611a81610cbf565b73ffffffffffffffffffffffffffffffffffffffff1614611ad7576040517f08c379a0000000000000000000000000000000000000000000000000000000008152600401611ace906137ef565b60405180910390fd5b565b60006002600083815260200190815260200160002060009054906101000a900473ffffffffffffffffffffffffffffffffffffffff169050919050565b6000600760009054906101000a900473ffffffffffffffffffffffffffffffffffffffff16905081600760006101000a81548173ffffffffffffffffffffffffffffffffffffffff021916908373ffffffffffffffffffffffffffffffffffffffff1602179055508173ffffffffffffffffffffffffffffffffffffffff168173ffffffffffffffffffffffffffffffffffffffff167f8be0079c531659141344cd1fd0a4f28419497f9722a3daafe3b4186f6b6457e060405160405180910390a35050565b8173ffffffffffffffffffffffffffffffffffffffff168373ffffffffffffffffffffffffffffffffffffffff161415611c4b576040517f08c379a0000000000000000000000000000000000000000000000000000000008152600401611c429061385b565b60405180910390fd5b80600560008573ffffffffffffffffffffffffffffffffffffffff1673ffffffffffffffffffffffffffffffffffffffff16815260200190815260200160002060008473ffffffffffffffffffffffffffffffffffffffff1673ffffffffffffffffffffffffffffffffffffffff16815260200190815260200160002060006101000a81548160ff0219169083151502179055508173ffffffffffffffffffffffffffffffffffffffff168373ffffffffffffffffffffffffffffffffffffffff167f17307eab39ab6107e8899845ad3d59bd9653f200f220920489ca2b5937696c3183604051611d3c91906127eb565b60405180910390a3505050565b611d54848484611761565b611d6084848484612023565b611d9f576040517f08c379a0000000000000000000000000000000000000000000000000000000008152600401611d96906138ed565b60405180910390fd5b50505050565b606060405180602001604052806000815250905090565b6060611dc782611420565b6000611dd1611da5565b90506000815111611df15760405180602001604052806000815250611e1c565b80611dfb846121ab565b604051602001611e0c929190613540565b6040516020818303038152906040525b915050919050565b60008073ffffffffffffffffffffffffffffffffffffffff16611e4683611ad9565b73ffffffffffffffffffffffffffffffffffffffff1614159050919050565b611e7f828260405180602001604052806000815250612283565b5050565b611e8c82611e24565b611ecb576040517f08c379a0000000000000000000000000000000000000000000000000000000008152600401611ec29061397f565b60405180910390fd5b80600660008481526020019081526020016000209080519060200190611ef2929190612694565b505050565b600181111561201757600073ffffffffffffffffffffffffffffffffffffffff168473ffffffffffffffffffffffffffffffffffffffff1614611f8b5780600360008673ffffffffffffffffffffffffffffffffffffffff1673ffffffffffffffffffffffffffffffffffffffff1681526020019081526020016000206000828254611f83919061399f565b925050819055505b600073ffffffffffffffffffffffffffffffffffffffff168373ffffffffffffffffffffffffffffffffffffffff16146120165780600360008573ffffffffffffffffffffffffffffffffffffffff1673ffffffffffffffffffffffffffffffffffffffff168152602001908152602001600020600082825461200e9190613358565b925050819055505b5b50505050565b50505050565b60006120448473ffffffffffffffffffffffffffffffffffffffff166122de565b1561219e578373ffffffffffffffffffffffffffffffffffffffff1663150b7a0261206d61146b565b8786866040518563ffffffff1660e01b815260040161208f9493929190613a28565b6020604051808303816000875af19250505080156120cb57506040513d601f19601f820116820180604052508101906120c89190613a89565b60015b61214e573d80600081146120fb576040519150601f19603f3d011682016040523d82523d6000602084013e612100565b606091505b50600081511415612146576040517f08c379a000000000000000000000000000000000000000000000000000000000815260040161213d906138ed565b60405180910390fd5b805181602001fd5b63150b7a0260e01b7bffffffffffffffffffffffffffffffffffffffffffffffffffffffff1916817bffffffffffffffffffffffffffffffffffffffffffffffffffffffff1916149150506121a3565b600190505b949350505050565b6060600060016121ba84612301565b01905060008167ffffffffffffffff8111156121d9576121d8612a1b565b5b6040519080825280601f01601f19166020018201604052801561220b5781602001600182028036833780820191505090505b509050600082602001820190505b600115612278578080600190039150507f3031323334353637383961626364656600000000000000000000000000000000600a86061a8153600a8581612262576122616135f6565b5b049450600085141561227357612278565b612219565b819350505050919050565b61228d8383612454565b61229a6000848484612023565b6122d9576040517f08c379a00000000000000000000000000000000000000000000000000000000081526004016122d0906138ed565b60405180910390fd5b505050565b6000808273ffffffffffffffffffffffffffffffffffffffff163b119050919050565b600080600090507a184f03e93ff9f4daa797ed6e38ed64bf6a1f010000000000000000831061235f577a184f03e93ff9f4daa797ed6e38ed64bf6a1f0100000000000000008381612355576123546135f6565b5b0492506040810190505b6d04ee2d6d415b85acef8100000000831061239c576d04ee2d6d415b85acef81000000008381612392576123916135f6565b5b0492506020810190505b662386f26fc1000083106123cb57662386f26fc1000083816123c1576123c06135f6565b5b0492506010810190505b6305f5e10083106123f4576305f5e10083816123ea576123e96135f6565b5b0492506008810190505b612710831061241957612710838161240f5761240e6135f6565b5b0492506004810190505b6064831061243c5760648381612432576124316135f6565b5b0492506002810190505b600a831061244b576001810190505b80915050919050565b600073ffffffffffffffffffffffffffffffffffffffff168273ffffffffffffffffffffffffffffffffffffffff1614156124c4576040517f08c379a00000000000000000000000000000000000000000000000000000000081526004016124bb90613b02565b60405180910390fd5b6124cd81611e24565b1561250d576040517f08c379a000000000000000000000000000000000000000000000000000000000815260040161250490613b6e565b60405180910390fd5b61251b600083836001611ef7565b61252481611e24565b15612564576040517f08c379a000000000000000000000000000000000000000000000000000000000815260040161255b90613b6e565b60405180910390fd5b6001600360008473ffffffffffffffffffffffffffffffffffffffff1673ffffffffffffffffffffffffffffffffffffffff16815260200190815260200160002060008282540192505081905550816002600083815260200190815260200160002060006101000a81548173ffffffffffffffffffffffffffffffffffffffff021916908373ffffffffffffffffffffffffffffffffffffffff160217905550808273ffffffffffffffffffffffffffffffffffffffff16600073ffffffffffffffffffffffffffffffffffffffff167fddf252ad1be2c89b69c2b068fc378daa952ba7f163c4a11628f55a4df523b3ef60405160405180910390a461266e60008383600161201d565b5050565b6040518060600160405280600390602082028036833780820191505090505090565b8280546126a090612fa5565b90600052602060002090601f0160209004810192826126c25760008555612709565b82601f106126db57805160ff1916838001178555612709565b82800160010185558215612709579182015b828111156127085782518255916020019190600101906126ed565b5b509050612716919061271a565b5090565b5b8082111561273357600081600090555060010161271b565b5090565b6000604051905090565b600080fd5b600080fd5b60007fffffffff0000000000000000000000000000000000000000000000000000000082169050919050565b6127808161274b565b811461278b57600080fd5b50565b60008135905061279d81612777565b92915050565b6000602082840312156127b9576127b8612741565b5b60006127c78482850161278e565b91505092915050565b60008115159050919050565b6127e5816127d0565b82525050565b600060208201905061280060008301846127dc565b92915050565b600081519050919050565b600082825260208201905092915050565b60005b83811015612840578082015181840152602081019050612825565b8381111561284f576000848401525b50505050565b6000601f19601f8301169050919050565b600061287182612806565b61287b8185612811565b935061288b818560208601612822565b61289481612855565b840191505092915050565b600060208201905081810360008301526128b98184612866565b905092915050565b6000819050919050565b6128d4816128c1565b81146128df57600080fd5b50565b6000813590506128f1816128cb565b92915050565b60006020828403121561290d5761290c612741565b5b600061291b848285016128e2565b91505092915050565b600073ffffffffffffffffffffffffffffffffffffffff82169050919050565b600061294f82612924565b9050919050565b61295f81612944565b82525050565b600060208201905061297a6000830184612956565b92915050565b61298981612944565b811461299457600080fd5b50565b6000813590506129a681612980565b92915050565b600080604083850312156129c3576129c2612741565b5b60006129d185828601612997565b92505060206129e2858286016128e2565b9150509250929050565b6129f5816128c1565b82525050565b6000602082019050612a1060008301846129ec565b92915050565b600080fd5b7f4e487b7100000000000000000000000000000000000000000000000000000000600052604160045260246000fd5b612a5382612855565b810181811067ffffffffffffffff82111715612a7257612a71612a1b565b5b80604052505050565b6000612a85612737565b9050612a918282612a4a565b919050565b600067ffffffffffffffff821115612ab157612ab0612a1b565b5b602082029050602081019050919050565b600080fd5b6000612ada612ad584612a96565b612a7b565b90508083825260208201905060208402830185811115612afd57612afc612ac2565b5b835b81811015612b265780612b1288826128e2565b845260208401935050602081019050612aff565b5050509392505050565b600082601f830112612b4557612b44612a16565b5b8135612b55848260208601612ac7565b91505092915050565b60008060408385031215612b7557612b74612741565b5b6000612b83858286016128e2565b925050602083013567ffffffffffffffff811115612ba457612ba3612746565b5b612bb085828601612b30565b9150509250929050565b600080600060608486031215612bd357612bd2612741565b5b6000612be186828701612997565b9350506020612bf286828701612997565b9250506040612c03868287016128e2565b9150509250925092565b600060039050919050565b600081905092915050565b6000819050919050565b612c36816128c1565b82525050565b6000612c488383612c2d565b60208301905092915050565b6000602082019050919050565b612c6a81612c0d565b612c748184612c18565b9250612c7f82612c23565b8060005b83811015612cb0578151612c978782612c3c565b9650612ca283612c54565b925050600181019050612c83565b505050505050565b6000606082019050612ccd6000830184612c61565b92915050565b600060208284031215612ce957612ce8612741565b5b6000612cf784828501612997565b91505092915050565b612d09816127d0565b8114612d1457600080fd5b50565b600081359050612d2681612d00565b92915050565b60008060408385031215612d4357612d42612741565b5b6000612d5185828601612997565b9250506020612d6285828601612d17565b9150509250929050565b7f4e487b7100000000000000000000000000000000000000000000000000000000600052602160045260246000fd5b60038110612dac57612dab612d6c565b5b50565b6000819050612dbd82612d9b565b919050565b6000612dcd82612daf565b9050919050565b612ddd81612dc2565b82525050565b6000602082019050612df86000830184612dd4565b92915050565b600080fd5b600067ffffffffffffffff821115612e1e57612e1d612a1b565b5b612e2782612855565b9050602081019050919050565b82818337600083830152505050565b6000612e56612e5184612e03565b612a7b565b905082815260208101848484011115612e7257612e71612dfe565b5b612e7d848285612e34565b509392505050565b600082601f830112612e9a57612e99612a16565b5b8135612eaa848260208601612e43565b91505092915050565b60008060008060808587031215612ecd57612ecc612741565b5b6000612edb87828801612997565b9450506020612eec87828801612997565b9350506040612efd878288016128e2565b925050606085013567ffffffffffffffff811115612f1e57612f1d612746565b5b612f2a87828801612e85565b91505092959194509250565b60008060408385031215612f4d57612f4c612741565b5b6000612f5b85828601612997565b9250506020612f6c85828601612997565b9150509250929050565b7f4e487b7100000000000000000000000000000000000000000000000000000000600052602260045260246000fd5b60006002820490506001821680612fbd57607f821691505b60208210811415612fd157612fd0612f76565b5b50919050565b7f4552433732313a20617070726f76616c20746f2063757272656e74206f776e6560008201527f7200000000000000000000000000000000000000000000000000000000000000602082015250565b6000613033602183612811565b915061303e82612fd7565b604082019050919050565b6000602082019050818103600083015261306281613026565b9050919050565b7f4552433732313a20617070726f76652063616c6c6572206973206e6f7420746f60008201527f6b656e206f776e6572206f7220617070726f76656420666f7220616c6c000000602082015250565b60006130c5603d83612811565b91506130d082613069565b604082019050919050565b600060208201905081810360008301526130f4816130b8565b9050919050565b60006040820190506131106000830185612956565b61311d6020830184612956565b9392505050565b7f4552433732313a2063616c6c6572206973206e6f7420746f6b656e206f776e6560008201527f72206f7220617070726f76656400000000000000000000000000000000000000602082015250565b6000613180602d83612811565b915061318b82613124565b604082019050919050565b600060208201905081810360008301526131af81613173565b9050919050565b600081905092915050565b50565b60006131d16000836131b6565b91506131dc826131c1565b600082019050919050565b60006131f2826131c4565b9150819050919050565b7f4552433732313a20696e76616c696420746f6b656e2049440000000000000000600082015250565b6000613232601883612811565b915061323d826131fc565b602082019050919050565b6000602082019050818103600083015261326181613225565b9050919050565b7f4552433732313a2061646472657373207a65726f206973206e6f74206120766160008201527f6c6964206f776e65720000000000000000000000000000000000000000000000602082015250565b60006132c4602983612811565b91506132cf82613268565b604082019050919050565b600060208201905081810360008301526132f3816132b7565b9050919050565b7f4e487b7100000000000000000000000000000000000000000000000000000000600052603260045260246000fd5b7f4e487b7100000000000000000000000000000000000000000000000000000000600052601160045260246000fd5b6000613363826128c1565b915061336e836128c1565b9250827fffffffffffffffffffffffffffffffffffffffffffffffffffffffffffffffff038211156133a3576133a2613329565b5b828201905092915050565b60006133b9826128c1565b91507fffffffffffffffffffffffffffffffffffffffffffffffffffffffffffffffff8214156133ec576133eb613329565b5b600182019050919050565b6000819050919050565b61340a816133f7565b82525050565b600067ffffffffffffffff82169050919050565b61342d81613410565b82525050565b600061ffff82169050919050565b61344a81613433565b82525050565b600063ffffffff82169050919050565b61346981613450565b82525050565b600060a0820190506134846000830188613401565b6134916020830187613424565b61349e6040830186613441565b6134ab6060830185613460565b6134b86080830184613460565b9695505050505050565b6000815190506134d1816128cb565b92915050565b6000602082840312156134ed576134ec612741565b5b60006134fb848285016134c2565b91505092915050565b600081905092915050565b600061351a82612806565b6135248185613504565b9350613534818560208601612822565b80840191505092915050565b600061354c828561350f565b9150613558828461350f565b91508190509392505050565b7f4f776e61626c653a206e6577206f776e657220697320746865207a65726f206160008201527f6464726573730000000000000000000000000000000000000000000000000000602082015250565b60006135c0602683612811565b91506135cb82613564565b604082019050919050565b600060208201905081810360008301526135ef816135b3565b9050919050565b7f4e487b7100000000000000000000000000000000000000000000000000000000600052601260045260246000fd5b6000613630826128c1565b915061363b836128c1565b92508261364b5761364a6135f6565b5b828206905092915050565b600060408201905061366b6000830185612dd4565b6136786020830184612956565b9392505050565b7f4552433732313a207472616e736665722066726f6d20696e636f72726563742060008201527f6f776e6572000000000000000000000000000000000000000000000000000000602082015250565b60006136db602583612811565b91506136e68261367f565b604082019050919050565b6000602082019050818103600083015261370a816136ce565b9050919050565b7f4552433732313a207472616e7366657220746f20746865207a65726f2061646460008201527f7265737300000000000000000000000000000000000000000000000000000000602082015250565b600061376d602483612811565b915061377882613711565b604082019050919050565b6000602082019050818103600083015261379c81613760565b9050919050565b7f4f776e61626c653a2063616c6c6572206973206e6f7420746865206f776e6572600082015250565b60006137d9602083612811565b91506137e4826137a3565b602082019050919050565b60006020820190508181036000830152613808816137cc565b9050919050565b7f4552433732313a20617070726f766520746f2063616c6c657200000000000000600082015250565b6000613845601983612811565b91506138508261380f565b602082019050919050565b6000602082019050818103600083015261387481613838565b9050919050565b7f4552433732313a207472616e7366657220746f206e6f6e20455243373231526560008201527f63656976657220696d706c656d656e7465720000000000000000000000000000602082015250565b60006138d7603283612811565b91506138e28261387b565b604082019050919050565b60006020820190508181036000830152613906816138ca565b9050919050565b7f45524337323155524953746f726167653a2055524920736574206f66206e6f6e60008201527f6578697374656e7420746f6b656e000000000000000000000000000000000000602082015250565b6000613969602e83612811565b91506139748261390d565b604082019050919050565b600060208201905081810360008301526139988161395c565b9050919050565b60006139aa826128c1565b91506139b5836128c1565b9250828210156139c8576139c7613329565b5b828203905092915050565b600081519050919050565b600082825260208201905092915050565b60006139fa826139d3565b613a0481856139de565b9350613a14818560208601612822565b613a1d81612855565b840191505092915050565b6000608082019050613a3d6000830187612956565b613a4a6020830186612956565b613a5760408301856129ec565b8181036060830152613a6981846139ef565b905095945050505050565b600081519050613a8381612777565b92915050565b600060208284031215613a9f57613a9e612741565b5b6000613aad84828501613a74565b91505092915050565b7f4552433732313a206d696e7420746f20746865207a65726f2061646472657373600082015250565b6000613aec602083612811565b9150613af782613ab6565b602082019050919050565b60006020820190508181036000830152613b1b81613adf565b9050919050565b7f4552433732313a20746f6b656e20616c7265616479206d696e74656400000000600082015250565b6000613b58601c83612811565b9150613b6382613b22565b602082019050919050565b60006020820190508181036000830152613b8781613b4b565b905091905056fea26469706673582212209c79124d6f4677895f7a569bf0b3afd790d224e85277ee3423258da278a484d564736f6c634300080a0033",
  "linkReferences": {},
  "deployedLinkReferences": {}
}